:020000040800F2
:100000008806002029020008310200083302000897
:10001000350200083702000839020008000000001D
:100020000000000000000000000000003B0200088B
:100030003D020008000000003F02000841020008E5
:10004000430200084302000843020008430200087C
:10005000430200084302000843020008430200086C
:10006000430200084302000843020008430200085C
:10007000430200084302000843020008430200084C
:10008000430200084302000843020008430200083C
:10009000430200084302000843020008430200082C
:1000A000430200084302000843020008430200081C
:1000B000430200084302000843020008430200080C
:1000C00043020008430200084302000843020008FC
:1000D00043020008430200084302000843020008EC
:1000E00043020008430200084302000843020008DC
:1000F00043020008430200084302000843020008CC
:1001000043020008430200084302000843020008BB
:1001100043020008430200084302000843020008AB
:10012000430200084302000843020008430200089B
:10013000430200084302000843020008430200088B
:10014000430200084302000843020008430200087B
:10015000430200084302000843020008430200086B
:10016000430200084302000843020008430200085B
:10017000430200084302000843020008430200084B
:10018000430200084302000800F002F800F03CF8C7
:100190000AA090E8000C82448344AAF10107DA45E2
:1001A00001D100F031F8AFF2090EBAE80F0013F0F8
:1001B000010F18BFFB1A43F001031847B80A0000EB
:1001C000D80A0000103A24BF78C878C1FAD852077C
:1001D00024BF30C830C144BF04680C6070470000C1
:1001E0000023002400250026103A28BF78C1FBD840
:1001F000520728BF30C148BF0B6070471FB500F0E1
:1002000034FD1FBD10B510BD00F031F81146FFF7E9
:10021000F5FF00F0A5FB00F04FF803B4FFF7F2FF85
:1002200003BC00F057F80000094880470948004720
:10023000FEE7FEE7FEE7FEE7FEE7FEE7FEE7FEE796
:10024000FEE7FEE704480549054A064B70470000F3
:100250006D08000889010008880000208806002039
:10026000880200208802002070477047704775465A
:1002700000F02CF8AE4605006946534620F0070012
:10028000854618B020B5FFF7DDFFBDE820404FF0F0
:1002900000064FF000074FF000084FF0000B21F070
:1002A0000701AC46ACE8C009ACE8C009ACE8C0093D
:1002B000ACE8C0098D46704710B50446AFF3008026
:1002C0002046BDE81040FFF7A8BF00000048704777
:1002D0002800002001491820ABBEFEE726000200DE
:1002E0007047F0B50A4600210023002400BF3DE01E
:1002F000012505FA01F3156805EA03049C4234D18F
:1003000005684F000326BE40B543056015794E00D1
:10031000B5400668354305601579012D02D0157981
:10032000022D16D185684F000326BE40B543856077
:1003300055794E00B540866835438560456801268D
:100340008E40B5434560456896798E40B6B23543D8
:100350004560C5684F000326BE40B543C560D579EA
:100360004E00B540C6683543C560491C1029BFD34F
:10037000F0BDF0B5002300244D07ED0E02FA05F3A1
:10038000CE1000F1200555F826504E07F70E0F2627
:10039000BE40B543CF1000F1200646F82750CE10DE
:1003A00000F1200555F8265045EA0304CE1000F16F
:1003B000200545F82640F0BD418370470183704712
:1003C00021B1028842F48062028004E002884FF684
:1003D000FF331A400280704770B5024600240025A2
:1003E00000230020958A138B1B0445EA030626F0A0
:1003F0007F4404EA01068E4201D1012000E0002082
:1004000070BD21B1028842F00102028004E002883E
:100410004FF6FE731A400280704721B1028842F401
:100420008072028004E002884FF6FF631A40028067
:10043000704721B1028842F40072028004E0028811
:100440004FF6FF531A40028070470CB50246002059
:1004500000230193009300920B0F019321F07F4141
:10046000019B1BB1009B1433009303E0090C009B1C
:1004700018330093009B1B680B400BB1012000E078
:1004800000200CBD2DE9FF4704460D460026B1466D
:100490000427DFF8CC80A6884FF6C0700640684677
:1004A00000F0FAF8DDF808802E48B8FBF0F01FFAEB
:1004B00080F946EA0906A68020884FF6FE710840BA
:1004C000208000262849286888420CD828684000E7
:1004D000B8FBF0F087B2042F00DA04273E4309F19D
:1004E0000100208427E0E8884BF6FF71884206D19E
:1004F000286800EB4000B8FBF0F087B209E02868FC
:1005000000EBC00101EB0010B8FBF0F087B247F43C
:100510008047C7F30B0008B947F0010747F40040D4
:1005200006434FF4967009FB00F04FF47A7190FB8C
:10053000F1F0401C2084A683208840F00100208038
:1005400026884FF6F5300640A88869890843064397
:100550002680A889298908432081BDE8FF870000FB
:1005600000127A0040420F00A08601000146088A6E
:10057000C0B2704712B141F0010101E001F0FE018B
:10058000018270470182704770B504460021204601
:10059000FFF716FF01212046FFF74BFF00BF06497A
:1005A0002046FFF719FF0028F9D02046FFF7DEFFAD
:1005B0000546284670BD00004000030070B50546A2
:1005C0000E46144600BF4FF400312846FFF73DFFAA
:1005D0000028F8D101212846FFF71FFF00BF0F496F
:1005E0002846FFF7F9FE0028F9D022463146284672
:1005F000FFF7C0FF3CB900BF09492846FFF7ECFEF2
:100600000028F9D009E0012C07D100BF0349491C9B
:100610002846FFF7E1FE0028F8D070BD0100030076
:100620008200070010B5044601212046FFF701FFB4
:1006300010BD000070B504460D4629462046FFF760
:10064000A1FF00BF03492046FFF7C6FE0028F9D0EE
:1006500070BD00008400070029B1064A12680243F9
:10066000044B1A6004E0034A12688243014B1A608B
:10067000704700003038024029B1064A1268024330
:10068000044B1A6004E0034A12688243014B1A606B
:100690007047000040380240F0B5002100220024DD
:1006A000022500260223324F3F6807F00C0121B1DA
:1006B000042905D0082937D105E02E4F076036E020
:1006C0002D4F076033E02A4F3F1F3F68C7F3805626
:1006D000274F3F1F3F6807F03F036EB1264FB7FB20
:1006E000F3F7DFF88CC0ACF1040CDCF800C0CCF3FD
:1006F000881C07FB0CF40CE01E4FB7FBF3F7DFF888
:1007000070C0ACF1040CDCF800C0CCF3881C07FB13
:100710000CF4174F3F1F3F68C7F301477F1C7D0054
:10072000B4FBF5F7076002E0124F076000BF00BF9F
:100730000F4F3F6807F0F0010909104F7A5C076816
:10074000D74047600A4F3F6807F4E051890A0B4FD2
:100750007A5C4768D7408760054F3F6807F460417F
:10076000490B064F7A5C4768D740C760F0BD000070
:10077000083802400024F40000127A00160000201D
:100780000CB50020019000903448006840F480309F
:100790003249086000BF3148006800F40030009022
:1007A0000198401C0190009818B90198B0F5A04F2D
:1007B000F1D12A48006800F4003010B10120009007
:1007C00001E0002000900098012846D123484030E5
:1007D000006840F08050214940310860204800689E
:1007E00040F440401E4908601C48083000681B491E
:1007F000083108600846006840F400400860084678
:10080000006840F4A05008601648091F0860081FDF
:10081000006840F08070091F086000BF0F48006842
:1008200000F000700028F9D040F205700E49086011
:100830000A480830006820F00300084908310860C1
:100840000846006840F00200086000BF0348083016
:10085000006800F00C000828F8D10CBD00380240F8
:100860000070004019544007003C024010B5154884
:10087000006840F47000134908601348006840F0B5
:1008800001001149086000200F49083108600E4836
:1008900000680E4908400C4908600D48091D0860B1
:1008A000081F006820F48020091F08600020064906
:1008B0000C310860FFF764FF4FF000600149803998
:1008C000086010BD88ED00E000380240FFFFF6FE32
:1008D0001030002400B587B001214805FFF7CCFE99
:1008E00001210220FFF7B8FEC020059002208DF8FC
:1008F00018008DF8190001208DF81A008DF81B00E2
:1009000005A91448FFF7EDFC042206211148FFF762
:1009100030FD042207210F48FFF72BFD0E48019000
:100920000020ADF808004BF6FF70ADF80A0000207B
:10093000ADF80C00ADF80E004FF48040ADF810009B
:1009400001A90648FFF79EFD01210448FFF759FD64
:1009500007B000BD00040240A08601000054004022
:100960000EB5FFF7B7FF01214804FFF785FE01210F
:100970000846FFF771FE01210820FFF76DFE0120F8
:100980008DF808004FF4E040019000208DF80A0037
:1009900003208DF8090001A9A248FFF7A2FC4FF43B
:1009A000E041A048FFF70AFD3BE10022D0219E482C
:1009B000FFF704FE6B219C48FFF73CFE00219A489C
:1009C000FFF738FE9848FFF72DFE0022D021964809
:1009D000FFF7F4FD1C219448FFF72CFE00219248FC
:1009E000FFF728FE9048FFF71DFE0022D0218E4819
:1009F000FFF7E4FD3B218C48FFF71CFE8A48FFF718
:100A000011FE0122D0218848FFF7D8FD8648FFF764
:100A1000BBFD864908800846007800F080008449C4
:100A200008700022D0218048FFF7C8FD3C217E4895
:100A3000FFF700FE7C48FFF7F5FD0122D0217A4840
:100A4000FFF7BCFD7848FFF79FFD7A490880002238
:100A5000D0217548FFF7B2FD3E217348FFF7EAFD4C
:100A60007148FFF7DFFD0122D0216F48FFF7A6FD97
:100A70006D48FFF789FD704908800022D0216A483F
:100A8000FFF79CFD3D216848FFF7D4FD6648FFF75E
:100A9000C9FD0122D0216448FFF790FD6248FFF7AD
:100AA00073FD664908800846007800F080006449BC
:100AB0000870604800885D49097840EA012000B26A
:100AC000604908805C4800885C49097840EA012058
:100AD00000B25D4908800A20002344F26822514296
:100AE00000905848B0F9000000F0B4F800B2554941
:100AF00008800A20002344F26822514200905248A4
:100B0000B0F9000000F0A6F800B24F4908804D4847
:100B1000B0F90000072813DB0846B0F900000228EE
:100B20000EDD0846B0F90000072809DA4FF4C0418D
:100B30003C48FFF741FC4FF480513A48FFF73EFC38
:100B40004048B0F90000022813DC3F48B0F900002B
:100B500002280EDD3C48B0F90000072809DA4FF4FE
:100B6000A0413048FFF728FC4FF400512D48FFF713
:100B700025FC3548B0F90000072813DB3148B0F9EF
:100B8000000002280EDD2F48B0F90000072809DA1E
:100B90004FF440512348FFF70FFC4FF480412148A8
:100BA000FFF70CFC2848B0F90000022813DC2548A8
:100BB000B0F9000002280EDD2248B0F90000072835
:100BC00009DA4FF400511748FFF7F6FB4FF4A04144
:100BD0001448FFF7F3FB1B48B0F90000022813DDAF
:100BE0001848B0F9000007280EDA1748B0F90000DD
:100BF000022809DD1448B0F90000072804DA4FF490
:100C0000E0410848FFF7DAFB10481149086004E0AA
:100C10000F480068401E0E4908600D480068002813
:100C2000F6D1C2E6000C024000540040040000204F
:100C300010000020060000200C0000200A00002008
:100C4000110000201200002014000020C02709001D
:100C50000000002070B50446049D601AEE1A70432F
:100C6000561A90FBF6F0184470BD4FF04070E1EE5C
:100C7000100A7047940C00080000002028000000B3
:100C8000C4010008BC0C0008280000206006000019
:100C9000E00100080000000000000000000000006B
:100CA0000000000000000000000000000000010241
:0C0CB00003040102030406070809000009
:0400000508000229C4
:00000001FF
